:100000000C945E000C9486000C9486000C94860080
:100010000C9486000C9486000C9486000C94C90203
:100020000C9486000C9486000C9486000C94860038
:100030000C9486000C9486000C9486000C94860028
:100040000C947F020C9486000C944B030C942503B3
:100050000C9486000C9486000C9486000C94860008
:100060000C9486000C948600020000000800020137
:100070000000030407000000000000000000000072
:1000800000250028002B0000000000240027002A83
:100090000004040404040404040202020202020331
:1000A000030303030301020408102040800102043B
:1000B00008102001020408102000280811241FBE87
:1000C000CFEFD8E0DEBFCDBF22E0AAE4B1E001C0AF
:1000D0001D92A933B207E1F711E0A0E0B1E0EAEE2A
:1000E000F1E102C005900D92AA34B107D9F710E0F2
:1000F000CEE5D0E004C02197FE010E94CD08CD35A9
:10010000D107C9F70E947D030C94F3080C940000FA
:1001100090E0FC01EB55FF4F24918F569F4FFC015F
:100120008491882399F090E0880F991FFC01E9578A
:10013000FF4FA591B491FC01E358FF4F8591949135
:100140008FB7F894EC91E22BEC938FBF089590E079
:10015000FC01E759FF4F2491FC01EB55FF4F34910F
:10016000FC01EF56FF4FE491EE23C9F0222339F052
:10017000233001F1A8F4213019F1223029F1F0E007
:10018000EE0FFF1FE358FF4FA591B4918FB7F8947E
:10019000EC91611126C030953E233C938FBF0895AA
:1001A0002730A9F02830C9F0243049F78091800029
:1001B0008F7D03C0809180008F7780938000DFCF98
:1001C00084B58F7784BDDBCF84B58F7DFBCF8091E5
:1001D000B0008F778093B000D2CF8091B0008F7D38
:1001E000F9CF3E2BDACF9091000189130BC0E8E6DE
:1001F000F0E0E4919FEF90930001E13049F028F0A6
:10020000E23061F060E00C94A70010926E00FACF2B
:1002100090916F009D7F90936F00F4CF909170004C
:100220009D7F9093700091E09093B0009091B10009
:10023000987F94609093B1001092B300E3CFAF9297
:10024000BF92CF92DF92EF92FF920F931F93CF93C3
:10025000DF936C017B018B01040F151FEB015E0125
:10026000AE18BF08C017D10759F06991D601ED91BA
:10027000FC910190F081E02DC6010995892B79F759
:10028000C501DF91CF911F910F91FF90EF90DF900B
:10029000CF90BF90AF900895FC01538D448D252FD2
:1002A00030E0842F90E0821B930B541710F0CF9610
:1002B000089501970895FC01918D828D981761F042
:1002C000A28DAE0FBF2FB11D5D968C91928D9F5F59
:1002D0009F73928F90E008958FEF9FEF0895FC0138
:1002E000918D828D981731F0828DE80FF11D858DEB
:1002F00090E008958FEF9FEF0895FC01918D228D7E
:10030000892F90E0805C9F4F821B91098F73992702
:1003100008958AE991E00E947D0121E0892B09F48A
:1003200020E0822F089580E090E0892B29F00E9440
:10033000890181110C9400000895FC01A48DA80F7F
:10034000B92FB11DA35ABF4F2C91848D90E0019617
:100350008F739927848FA689B7892C93A089B18937
:100360008C91837080648C93938D848D981306C0D8
:100370000288F389E02D80818F7D80830895EF923C
:10038000FF920F931F93CF93DF93EC0181E0888F4F
:100390009B8D8C8D98131AC0E889F989808185FF1F
:1003A00015C09FB7F894EE89FF896083E889F989C1
:1003B00080818370806480839FBF81E090E0DF91C3
:1003C000CF911F910F91FF90EF900895F62E0B8D16
:1003D00010E00F5F1F4F0F731127E02E8C8D8E11D1
:1003E0000CC00FB607FCFACFE889F989808185FF38
:1003F000F5CFCE010E949D01F1CFEB8DEC0FFD2FCB
:10040000F11DE35AFF4FF0829FB7F8940B8FEA89F2
:10041000FB8980818062CFCFCF93DF93EC01888D01
:100420008823B9F0AA89BB89E889F9898C9185FD6F
:1004300003C0808186FD0DC00FB607FCF7CF8C91FD
:1004400085FFF2CF808185FFEDCFCE010E949D0117
:10045000E9CFDF91CF910895CF93DF93EB01C65B96
:10046000DE4F2881211105C0CB010E94880081E068
:100470008883DF91CF9108950F931F93CF9380913D
:1004800001019091020197FD08C00E94F3008FEFD7
:100490009FEF90930201809301010CE411E0C2E010
:1004A000F80181918F01882321F060E08C2F0E9458
:1004B000A700CF5FCE30A1F710926901CF911F91B5
:1004C0000F910895CF93DF93FC0101900020E9F78D
:1004D0003197AF01481B590BBC018AE991E00E949A
:1004E0001F01EC0142E050E065E171E08AE991E032
:1004F0000E941F018C0F9D1FDF91CF9108951F92C5
:100500000F920FB60F9211242F933F938F939F93C7
:10051000AF93BF938091960190919701A09198011C
:10052000B09199013091950123E0230F2D3758F5B3
:100530000196A11DB11D2093950180939601909382
:100540009701A0939801B0939901809191019091A6
:100550009201A0919301B09194010196A11DB11D4A
:100560008093910190939201A0939301B093940191
:10057000BF91AF919F918F913F912F910F900FBE9F
:100580000F901F90189526E8230F0296A11DB11D0C
:10059000D2CF1F920F920FB60F9211242F933F9339
:1005A0004F935F936F937F938F939F93AF93BF937B
:1005B000EF93FF9380915D0190915E01A0915F01A7
:1005C000B0916001892B8A2B8B2BD1F1909158012E
:1005D000E0915901F0915A018081892780838091AF
:1005E0005D0190915E01A0915F01B09160011816CC
:1005F00019061A061B069CF480915D0190915E011C
:10060000A0915F01B09160010197A109B1098093A8
:100610005D0190935E01A0935F01B0936001FF9133
:10062000EF91BF91AF919F918F917F916F915F916A
:100630004F913F912F910F900FBE0F901F901895E3
:10064000809100010E94F300EACF1F920F920FB633
:100650000F9211242F933F934F935F936F937F9348
:100660008F939F93AF93BF93EF93FF938AE991E0AA
:100670000E949D01FF91EF91BF91AF919F918F914A
:100680007F916F915F914F913F912F910F900FBE8E
:100690000F901F9018951F920F920FB60F92112472
:1006A0002F938F939F93EF93FF93E091AA01F09183
:1006B000AB018081E091B001F091B10182FD1BC0DE
:1006C00090818091B3018F5F8F732091B401821765
:1006D00041F0E091B301F0E0E656FE4F958F809334
:1006E000B301FF91EF919F918F912F910F900FBECA
:1006F0000F901F9018958081F4CFCF93DF93CDB7E3
:10070000DEB76E970FB6F894DEBF0FBECDBF7894FC
:1007100084B5826084BD84B5816084BD85B5826006
:1007200085BD85B5816085BD80916E0081608093B7
:100730006E00109281008091810082608093810020
:100740008091810081608093810080918000816030
:10075000809380008091B10084608093B10080918B
:10076000B00081608093B00080917A0084608093B3
:100770007A0080917A00826080937A0080917A007A
:10078000816080937A0080917A00806880937A00FB
:100790001092C100E091AA01F091AB0182E0808348
:1007A000E091A601F091A7011082E091A801F091DB
:1007B000A90180E180831092B201E091AE01F09135
:1007C000AF0186E08083E091AC01F091AD018081C2
:1007D00080618083E091AC01F091AD0180818860FF
:1007E0008083E091AC01F091AD01808180688083CD
:1007F000E091AC01F091AD0180818F7D8083EAE4CE
:10080000F1E088E591E011928E179F07E1F72FB78D
:10081000F8948091960190919701A0919801B091E0
:1008200099012FBF80936B0190936C01A0936D0190
:10083000B0936E0188E191E00E94620268E4462E66
:1008400068EE562E66246394712C332433948AE91F
:1008500091E00E947D01181619060CF0CAC38AE9BE
:1008600091E00E945B018D3091F3109190018A30EC
:1008700009F0ABC3E12FF0E0E159FE4F10822FB732
:10088000F8948091960190919701A0919801B09170
:1008900099012FBF80936B0190936C01A0936D0120
:1008A000B0936E0180916A01811104C08091900122
:1008B000811103C080E291E08DC068E271E08FE6B3
:1008C00091E00E9455087E012DE0E20EF11C10E03F
:1008D000009771F0153071F31F5FD7018D939D93D1
:1008E0007D0168E271E090E080E00E945508F0CF61
:1008F000112301F3ED84FE846AE271E0C7010E94D6
:10090000EA08892B29F48FE291E0113009F462C0E2
:1009100067E371E0C7010E94EA08892B11F41130E6
:1009200099F1FE0131966E01BFE0CB0ED11C9924E6
:1009300093941915B9F1D601AD90BD906D0120E0E9
:1009400030E0A90100E0D5018D905D01882009F11A
:1009500080ED880D8A3008F0ADCF0F5F063009F4C6
:10096000A9CFAAE0B0E00E94C2089B01AC01882D8B
:10097000880C990BC097092E000CAA0BBB0B280FF3
:10098000391F4A1F5B1FDFCF0E943C028BE391E0BF
:1009900021C0002309F48ECF2193319341935193C9
:1009A0009394C7CF66E271E0C7010E94EA08892BE1
:1009B00081F5133071F589809A80AB80BC80D501B8
:1009C000C4010297A109B1090C97A105B10548F02E
:1009D0008EE391E00E9462021092900110926A01EF
:1009E00036CFCD80DE80EF80F884B2E0CB16D10424
:1009F000E104F10408F05ECFC501B4010E942C02AD
:100A00006C2D882D0E94A700C0FEC0CF30926901D6
:100A1000BDCF66E471E0C7010E94EA08892B09F0A6
:100A20008FC0133009F08CC089809A80AB80BC8065
:100A3000E3E08E169104A104B10499F0D501C4013C
:100A40000597A109B1090297A105B10550F0D5019B
:100A5000C4010997A109B1090397A105B10508F0DF
:100A6000B7CFCD80DE80EF80F884FFEFCF16D104C2
:100A7000E104F10411F008F01DCFC501B4010E949A
:100A80002C028601882D0E948800C114D10429F40B
:100A900060E0882D0E94A70029C00F3F110511F4C6
:100AA00061E0F7CFE82DF0E0E759FF4FE491E33044
:100AB00069F140F4E130B1F0E23019F1003811058C
:100AC0007CF7E6CFE73061F1E83091F1E430B1F73F
:100AD00080918000806280938000D0928B00C092D1
:100AE0008A0004C084B5806884BDC7BC8D819E81A6
:100AF000AF81B885181619061A061B060CF486CFA6
:100B000045CF84B5806284BDC8BCF0CF80918000A1
:100B1000806880938000D0928900C0928800E6CFE0
:100B20008091B00080688093B000C092B300DECFA7
:100B30008091B00080628093B000C092B400D6CFA4
:100B400068E471E0C7010E94EA08892B09F0B2CE7F
:100B5000143009F0AFCEC980DA80EB80FC80D70179
:100B6000C6010297A109B1090C97A105B10508F0CA
:100B70002FCF8D809E80AF80B884D501C4014F9760
:100B8000A109B10982309E44A105B10508F092CEB9
:100B900089859A85AB85BC858F8B988FA98FBA8FF5
:100BA0000197A109B10980319742A105B10508F06B
:100BB00081CEC701B6010E942C0280910101909163
:100BC000020197FD0BC0AC01990F660B770BC416A1
:100BD000D506E606F70611F00E94F30080910001A9
:100BE0008C110CC0E8E6F0E0149117FF39C0898140
:100BF0009A81909302018093010108CF8F3FB9F74A
:100C0000C0920001E8E6F0E014911F3F81F311303B
:100C100009F4CCC048F0123009F4EAC017FDE7CF60
:100C20008C2D0E94880021C014BC15BC84B5826044
:100C300084BD85B5816085BD8C2D90E0FC01EF56AB
:100C4000FF4FE491F0E0EE0FFF1FE358FF4F2591B7
:100C50003491FC01EB55FF4FE491E0935C0110E00F
:100C60008C2D0E948800112359F060E072E18AE720
:100C700090E0A50194010E94A308123009F05CC124
:100C800060E072E18AE790E0A50194010E94A30868
:100C90002B8F3C8F4D8F5E8F60E472E48FE090E08D
:100CA000A50194010E94A30869017A01F1E0CF1A1D
:100CB000D108E108F108123009F0C0C02FEFC216C8
:100CC000D104E104F10409F00CF42EC160E970EDE7
:100CD00083E090E0A50194010E94A30869017A01D4
:100CE00081E0C81AD108E108F10883E09FEFC91636
:100CF000D104E104F10409F00CF417C1C301B201FD
:100D0000A50194010E94A30869017A0181E0C81A33
:100D1000D108E108F10884E09FEFC916D104E1048D
:100D2000F10409F00CF401C164E274EF80E090E09A
:100D3000A50194010E94A30869017A01E1E0CE1A9D
:100D4000D108E108F10885E0FFEFCF16D104E104F6
:100D5000F10409F008F4E9C062E17AE780E090E08C
:100D6000A50194010E94A30869017A01B1E0CB1AA0
:100D7000D108E108F10886E0EFEFCE16D104E104D6
:100D8000F10409F00CF4D1C0CB8CDC8CED8CFE8C22
:100D90002AE0F594E794D794C7942A95D1F7F1E027
:100DA000CF1AD108E108F10887E0BFC01092800097
:100DB00010928100809181008860809381008091F1
:100DC00081008160809381008C2D90E0FC01EF56C2
:100DD000FF4FE491F0E0EE0FFF1FE358FF4F259126
:100DE0003491FC01EB55FF4FE491E0935B0138CF68
:100DF0001092B0001092B1008091B0008260809398
:100E0000B0008091B10081608093B1008C2D90E0A2
:100E1000FC01EF56FF4FE491F0E0EE0FFF1FE358A7
:100E2000FF4F2591349130935A0120935901FC01D1
:100E3000EB55FF4FE491E093580112CFAFEFCA1684
:100E4000D104E104F10409F00CF441C0C301B20182
:100E5000A50194010E94A30869017A01B1E0CB1AAF
:100E6000D108E108F10884E011116ECF93E0AFEFF3
:100E7000CA16D104E104F10469F164F162E17AE790
:100E800080E090E0A50194010E94A30869017A0125
:100E9000F1E0CF1AD108E108F10894E02FEFC21673
:100EA000D104E104F104B1F0ACF0CB8CDC8CED8C1E
:100EB000FE8C9AE0F594E794D794C7949A95D1F76D
:100EC00021E0C21AD108E108F10895E003C0111130
:100ED0002BC092E085B5887F892B85BDD401AA0FF0
:100EE000BB1F2F89388D498D5A8D0E94C20828EE6C
:100EF00033E040E050E00E948108113009F443C023
:100F0000123009F452C0111172CEC7BC2093650192
:100F100030936601409367015093680180916E00A1
:100F2000826080936E0063CE82E09091B100987FE2
:100F3000892B8093B100D2CF69017A0181E0C81A70
:100F4000D108E108F108C114D10491E0E906F104E7
:100F5000C4F0C301B201A50194010E94A308690174
:100F60007A01A1E0CA1AD108E108F10893E0113032
:100F700009F0B4CF80918100887F892B8093810014
:100F8000ADCF91E0F4CFD0928900C0928800209339
:100F90006101309362014093630150936401809139
:100FA0006F00826080936F0022CEC092B3002093C6
:100FB0005D0130935E0140935F0150936001809129
:100FC000700082608093700012CE103278F4082E88
:100FD000000C990B0E94E20891E0910F9093900110
:100FE000E12FF0E0E159FE4F808331CC30926A016D
:100FF0002ECC809169018823F1F02FB7F89480916D
:10100000960190919701A0919801B09199012FBFFD
:1010100040916B0150916C0160916D0170916E0176
:10102000841B950BA60BB70B893B9B40A105B10513
:1010300010F00E943C0280E090E0892B09F405CC7E
:101040000E948901882309F400CC0E940000FDCB96
:10105000EAE9F1E01382128288EE93E0A0E0B0E0CA
:1010600084839583A683B78387E091E0918380830F
:1010700085EC90E09587848784EC90E0978786875D
:1010800080EC90E0918B808B81EC90E0938B828B55
:1010900082EC90E0958B848B86EC90E0978B868B2E
:1010A000118E128E138E148E089547E352E00E9423
:1010B0005A080895FA01A191B081009719F4109788
:1010C000E1F0CD01DC01CD010D90002011F4C00153
:1010D00013C0FB012191222319F02015D9F7F3CF7A
:1010E000FB012191201519F41E92119606C02223AE
:1010F000C1F70D900020A1F7D001FA01A193B083B0
:101100000895A1E21A2EAA1BBB1BFD010DC0AA1F48
:10111000BB1FEE1FFF1FA217B307E407F50720F060
:10112000A21BB30BE40BF50B661F771F881F991FDB
:101130001A9469F760957095809590959B01AC0124
:10114000BD01CF010895052E97FB1EF400940E9467
:10115000BA0857FD07D00E94810807FC03D04EF45F
:101160000C94BA0850954095309521953F4F4F4FBC
:101170005F4F089590958095709561957F4F8F4F43
:101180009F4F08950E94D308A59F900DB49F900D86
:10119000A49F800D911D11240895EE0FFF1F05904F
:1011A000F491E02D0994A29FB001B39FC001A39FC9
:1011B000700D811D1124911DB29F700D811D112490
:1011C000911D08959111089581568A5108F4805215
:1011D00085580895FB01DC018D9101908019011063
:0A11E000D9F3990B0895F894FFCF9E
:1011EA00FFFFFF00000000BF011F014C010C027D40
:1011FA00015B016F010D0A005052455420763100FF
:10120A0045525220434D4400200050494E47005059
:10121A004F4E47207631004F4646004F4B0045520D
:0A122A00522050494E0041005400CC
:00000001FF
